:100000000C9462000C948A000C948A000C94E10415
:100010000C94E1040C94E1040C948A000C948A0082
:100020000C948A000C948A000C948A000C948A0028
:100030000C948A000C948A000C948A000C948A0018
:100040000C947C030C948A000C944A030C942403B3
:100050000C948A000C948A000C948A000C948A00F8
:100060000C94C6030C948A000000000800020100F2
:100070000003040700000000000000000000000072
:10008000250028002B0000000000240027002A0083
:1000900000000000230026002900040404040404D6
:1000A0000404020202020202030303030303010227
:1000B00004081020408001020408102001020408F6
:1000C0001020300511241FBECFEFD8E0DEBFCDBF1A
:1000D00011E0A0E0B1E0EEEAF2E102C005900D927D
:1000E000A232B107D9F722E0A2E2B1E001C01D922D
:1000F000AB33B207E1F710E0C2E6D0E004C02197CD
:10010000FE010E944F09C136D107C9F70E945D0563
:100110000C9455090C940000AF92BF92CF92DF92DD
:10012000EF92FF920F931F93CF93DF936C017B01AC
:100130008B01040F151FEB015E01AE18BF08C0173D
:10014000D10759F06991D601ED91FC910190F081B0
:10015000E02DC6010995892B79F7C501DF91CF9173
:100160001F910F91FF90EF90DF90CF90BF90AF90D5
:100170000895FC01538D448D252F30E0842F90E0AD
:10018000821B930B541710F0CF9608950197089592
:10019000FC01918D828D981761F0A28DAE0FBF2F5B
:1001A000B11D5D968C91928D9F5F9F73928F90E0B1
:1001B00008958FEF9FEF0895FC01918D828D981720
:1001C00031F0828DE80FF11D858D90E008958FEF5D
:1001D0009FEF0895FC01918D228D892F90E0805C26
:1001E0009F4F821B91098F73992708958EE991E0A3
:1001F0000E94EA0021E0892B09F420E0822F089573
:1002000080E090E0892B29F00E94F60081110C9487
:1002100000000895FC01A48DA80FB92FB11DA35AA9
:10022000BF4F2C91848D90E001968F739927848F16
:10023000A689B7892C93A089B1898C918370806439
:100240008C93938D848D981306C00288F389E02DDA
:1002500080818F7D80830895EF92FF920F931F938B
:10026000CF93DF93EC0181E0888F9B8D8C8D981369
:100270001AC0E889F989808185FF15C09FB7F89475
:10028000EE89FF896083E889F989808183708064C1
:1002900080839FBF81E090E0DF91CF911F910F910C
:1002A000FF90EF900895F62E0B8D10E00F5F1F4F1B
:1002B0000F731127E02E8C8D8E110CC00FB607FC2A
:1002C000FACFE889F989808185FFF5CFCE010E94B8
:1002D0000A01F1CFEB8DEC0FFD2FF11DE35AFF4F1B
:1002E000F0829FB7F8940B8FEA89FB898081806246
:1002F000CFCFCF93DF93EC01888D8823B9F0AA8903
:10030000BB89E889F9898C9185FD03C0808186FDD0
:100310000DC00FB607FCF7CF8C9185FFF2CF80811F
:1003200085FFEDCFCE010E940A01E9CFDF91CF9189
:10033000089590E0FC01E859FF4F2491FC01E2553B
:10034000FF4F3491FC01E656FF4FE491EE23C9F0D4
:10035000222339F0233001F1A8F4213019F12230A1
:1003600029F1F0E0EE0FFF1FE458FF4FA591B49183
:100370008FB7F894EC91611126C030953E233C93E1
:100380008FBF08952730A9F02830C9F0243049F7ED
:10039000809180008F7D03C0809180008F77809353
:1003A0008000DFCF84B58F7784BDDBCF84B58F7DB0
:1003B000FBCF8091B0008F778093B000D2CF809137
:1003C000B0008F7DF9CF3E2BDACF3FB7F894809104
:1003D0009A0190919B01A0919C01B0919D0126B53D
:1003E000A89B05C02F3F19F00196A11DB11D3FBF6D
:1003F000BA2FA92F982F8827BC01CD01620F711D3C
:10040000811D911D42E0660F771F881F991F4A9535
:10041000D1F7089520914B01260F3327331F213246
:100420003105ECF420916F01FC0190E080E0243074
:1004300069F082E00895A0914B012191AC01455DE6
:100440005E4FA40FB52FB11D2C930196861798F31C
:1004500080914B01680F60934B0180E0089581E02B
:10046000089508958FEF9FEF08958FEF9FEF089500
:100470008091240190E09195819591090895CF9301
:10048000DF93CB01EA01642F0E940A02CE01DF91C3
:10049000CF910895CF93DF931F92CDB7DEB76983D5
:1004A00061E0CE0101960E940A0281E090E00F9087
:1004B000DF91CF91089590E080E00895FC010190D4
:1004C0000020E9F73197AF01481B590BBC018EE9B9
:1004D00091E00C948C008F929F92AF92BF920F93F9
:1004E0001F93CF93DF93CDB7DEB7A1970FB6F894E4
:1004F000DEBF0FBECDBF19A2423008F44AE08E0124
:100500000F5D1F4F842E912CB12CA12CA5019401BD
:100510000E942D09E62FB901CA01EA30F4F4E05D2A
:10052000D801EE938D01232B242B252B79F790E016
:1005300080E0109719F0CD010E945E02A1960FB6DF
:10054000F894DEBF0FBECDBFDF91CF911F910F9109
:10055000BF90AF909F908F900895E95CE1CF1F937B
:10056000CF93DF9385ED8093BC008091270190911C
:100570002801A0912901B0912A010796A11DB11D62
:1005800023E0B695A795979587952A95D1F7209161
:10059000BC0024FD03C010926F0152C0409127019E
:1005A000509128016091290170912A01452B462B19
:1005B000472B69F30097A105B10541F025E32A9582
:1005C000F1F700000197A109B109E1CF809126015F
:1005D000C1E0C0932501882399F1D091B800109112
:1005E000BA008091BC008A7B8093BC0060E082E10D
:1005F0000E94990160E083E10E94990110926F01CD
:10060000C09371011092700161E082E10E94990132
:1006100061E083E10E9499018091B9008E7F80930F
:10062000B9008091B9008D7F8093B90088E48093F0
:10063000B80085E48093BC001093BA00D093B80052
:10064000DF91CF911F9108951F920F920FB60F92D5
:1006500011242F933F934F935F936F937F938F93C7
:100660009F93AF93BF93EF93FF938EE991E00E9426
:100670000A01FF91EF91BF91AF919F918F917F916F
:100680006F915F914F913F912F910F900FBE0F90FF
:100690001F9018951F920F920FB60F9211242F934F
:1006A0008F939F93EF93FF93E091AE01F091AF0191
:1006B0008081E091B401F091B50182FD1BC0908171
:1006C0008091B7018F5F8F732091B801821741F03D
:1006D000E091B701F0E0E256FE4F958F8093B701AD
:1006E000FF91EF919F918F912F910F900FBE0F90DF
:1006F0001F9018958081F4CF1F920F920FB60F9222
:1007000011242F933F938F939F93AF93BF93809127
:10071000960190919701A0919801B0919901309123
:10072000950123E0230F2D3758F50196A11DB11D2A
:10073000209395018093960190939701A09398013F
:10074000B093990180919A0190919B01A0919C0195
:10075000B0919D010196A11DB11D80939A019093C6
:100760009B01A0939C01B0939D01BF91AF919F917C
:100770008F913F912F910F900FBE0F901F90189562
:1007800026E8230F0296A11DB11DD2CF1F920F9212
:100790000FB60F9211242F933F934F935F936F9354
:1007A0007F938F939F93AF93BF93EF93FF9380912A
:1007B000B900887F803609F44AC0F0F5883209F420
:1007C000A5C018F5803109F499C0B8F4882309F45C
:1007D000F5C0883009F492C0FF91EF91BF91AF91BD
:1007E0009F918F917F916F915F914F913F912F9149
:1007F0000F900FBE0F901F901895883109F486C096
:10080000803251F780936E0114C0803409F49BC08C
:1008100040F48033B9F38833F9F680936E0185ECA8
:10082000AEC0803509F483C0883509F494C088349B
:1008300099F60E94AF02D0CF883909F48AC038F502
:10084000883729F050F4883611F0803729F683E094
:1008500080936F0110926D0155C0883809F479C0FA
:10086000803919F0803809F0B7CF80916D0180325E
:1008700008F06FC0E0916D0181E08E0F80936D01F3
:100880008091BB00F0E0E35BFE4F80833BC0803B88
:1008900039F0D0F4803A09F477C0883A09F09CCF57
:1008A00084E080936F0110924C0110924B01F0E0B4
:1008B000E0E0099580914B0181110FC081E08093A8
:1008C0004B0110922B0109C0803C09F4A8CF883C51
:1008D00009F4A5CF883B09F07FCFE0914C0181E07E
:1008E0008E0F80934C01F0E0E55DFE4F8081809398
:1008F000BB0090914C0180914B0129C080919401E3
:100900008093BB0085EC8093BC0066CF90919301EF
:1009100080919201981758F5E091930181E08E0F34
:1009200080939301F0E0EE58FE4F8081E9CFE09193
:10093000930181E08E0F809393018091BB00F0E0E2
:10094000EE58FE4F80839091930180919201981709
:10095000C8F285E8D8CFE091930181E08E0F8093B3
:1009600093018091BB00F0E0EE58FE4F80838091B0
:10097000710181115ECF81E08093700184EA8093E0
:10098000BC0010926F0128CF85EC8093BC001092C0
:100990006F0180916D01803230F4E0916D01F0E0E3
:1009A000E35BFE4F108260916D0170E08DE491E099
:1009B000F0E0E0E0099510926D010ECF10926E010B
:1009C00038CF1F920F920FB60F9211240F900FBEC7
:1009D0000F901F901895CF92DF92EF92FF920F9396
:1009E0001F93E82FF92F05C0015011092109310982
:1009F00061F1908196239417B9F305C00150110954
:100A00002109310911F1908196239413F7CFC12C5C
:100A1000D12CE12CF12C0AC08FEFC81AD80AE80AB1
:100A2000F80A0C151D052E053F0579F080818623F7
:100A3000841791F36C2D7D2D8E2D9F2D1F910F917D
:100A4000FF90EF90DF90CF90089560E070E080E03D
:100A500090E01F910F91FF90EF90DF90CF9008955D
:100A6000EEE9F1E01382128288EE93E0A0E0B0E0BC
:100A700084839583A683B78384E091E09183808308
:100A800085EC90E09587848784EC90E09787868753
:100A900080EC90E0918B808B81EC90E0938B828B4B
:100AA00082EC90E0958B848B86EC90E0978B868B24
:100AB000118E128E138E148E0895789484B58260F0
:100AC00084BD84B5816084BD85B5826085BD85B5F2
:100AD000816085BD80916E00816080936E00109270
:100AE00081008091810082608093810080918100EB
:100AF000816080938100809180008160809380007C
:100B00008091B10084608093B1008091B0008160D9
:100B10008093B00080917A00846080937A00809105
:100B20007A00826080937A0080917A00816080935D
:100B30007A0080917A00806880937A001092C100D8
:100B4000E1EBF0E024914DE9242E40E0342EF10158
:100B500084918823C1F090E0880F991FFC01EA5727
:100B6000FF4FA591B491FC01E458FF4FC591D4917A
:100B70003FB7F8949C91822F809598239C939881FD
:100B8000892388833FBFE091AE01F091AF0182E0FD
:100B90008083E091AA01F091AB011082E091AC0159
:100BA000F091AD0180E180831092B601E091B20135
:100BB000F091B30186E08083E091B001F091B10142
:100BC000808180618083E091B001F091B1018081EA
:100BD00088608083E091B001F091B10180818068EC
:100BE0008083E091B001F091B10180818F7D80839D
:100BF000C0E0D0E0E1EBF0E06491F1018491E82FF6
:100C0000F0E0EE0FFF1FE057FF4F8591949100E455
:100C100012E42FE030E0462F0E94EB0461157105CD
:100C20008105910529F06F5F7F4F8F4F9F4F9F7018
:100C30000E9404082DEB37E346E855E30E94BB0809
:100C40009B01AC0160E070E080E89FE30E946307D5
:100C50006B017C010E94E5012B013C0188EE882E8E
:100C600083E0982EA12CB12C0E94E501641975092E
:100C700086099709683E734081059105A8F3F1E064
:100C80008F1A9108A108B10828EE420E23E0521EE7
:100C9000611C711C81149104A104B10429F7A701FE
:100CA0009601C701B6010E9428098823F1F082E16C
:100CB00091E00E945E0260E28EE991E00E942C01C8
:100CC0004AE060E070E0CB010E946B028EE191E0AF
:100CD0000E945E02209709F48DCF0E94F6008823BF
:100CE00009F488CF0E94000085CF2FEF3FEF4FE738
:100CF0005FE7C701B6010E94280981110DC02FEFDF
:100D00003FEF4FE75FE7C701B6010E945E07181685
:100D10001CF486E191E0CDCF2FEF3FEF4FE75FE48A
:100D2000C701B6010E94B60818161CF48AE191E0CA
:100D3000C0CF2FEF3FEF4FE75FECC701B6010E9436
:100D40005E0787FDF3CF2AE037ED43EA5BE3C70197
:100D5000B6010E94F2064B015C010E94D5076B01AF
:100D60007C010E9404089B01AC01C501B4010E94F2
:100D7000F1064B015C014AE0C701B6010E946B021B
:100D80006EE28EE991E00E942C0120E030E040E22A
:100D900051E4C501B4010E94BB084B015C010E94F3
:100DA000D5076B01F12CE12C4AE0C701B6010E9486
:100DB0006B02C701B6010E9404089B01AC01C5018A
:100DC000B4010E94F10620E030E040E251E40E94CC
:100DD000BB080E94D50790E080E04AE00E946B02C9
:100DE0006ACF5058BB27AA270E9409070C947C0899
:100DF0000E946E0838F00E94750820F039F49F3F79
:100E000019F426F40C946B080EF4E095E7FB0C94AF
:100E10006508E92F0E948D0858F3BA176207730717
:100E20008407950720F079F4A6F50C94AF080EF42A
:100E3000E0950B2EBA2FA02D0B01B90190010C01EA
:100E4000CA01A0011124FF27591B99F0593F50F402
:100E5000503E68F11A16F040A22F232F342F44275A
:100E6000585FF3CF469537952795A795F040539552
:100E7000C9F77EF41F16BA0B620B730B840BBAF022
:100E80009150A1F0FF0FBB1F661F771F881FC2F78D
:100E90000EC0BA0F621F731F841F48F487957795A1
:100EA0006795B795F7959E3F08F0B0CF9395880F5B
:100EB00008F09927EE0F9795879508950E944108AD
:100EC00008F481E008950E9477070C947C080E9442
:100ED000750858F00E946E0840F029F45F3F29F031
:100EE0000C94650851110C94B0080C946B080E9486
:100EF0008D0868F39923B1F3552391F3951B550B96
:100F0000BB27AA2762177307840738F09F5F5F4FDC
:100F1000220F331F441FAA1FA9F335D00E2E3AF01B
:100F2000E0E832D091505040E695001CCAF72BD033
:100F3000FE2F29D0660F771F881FBB1F2617370784
:100F40004807AB07B0E809F0BB0B802DBF01FF27B6
:100F500093585F4F3AF09E3F510578F00C94650826
:100F60000C94B0085F3FE4F3983ED4F386957795F0
:100F70006795B795F7959F5FC9F7880F911D96956F
:100F8000879597F90895E1E0660F771F881FBB1FCB
:100F9000621773078407BA0720F0621B730B840B78
:100FA000BA0BEE1F88F7E09508950E94950888F027
:100FB0009F5798F0B92F9927B751B0F0E1F0660F1D
:100FC000771F881F991F1AF0BA95C9F714C0B1305E
:100FD00091F00E94AF08B1E008950C94AF08672F1C
:100FE000782F8827B85F39F0B93FCCF3869577958D
:100FF0006795B395D9F73EF4909580957095619576
:101000007F4F8F4F9F4F0895E89409C097FB3EF4A0
:1010100090958095709561957F4F8F4F9F4F992345
:10102000A9F0F92F96E9BB279395F69587957795C3
:101030006795B795F111F8CFFAF4BB0F11F460FF83
:101040001BC06F5F7F4F8F4F9F4F16C0882311F0DB
:1010500096E911C0772321F09EE8872F762F05C0EF
:10106000662371F096E8862F70E060E02AF09A958A
:10107000660F771F881FDAF7880F9695879597F97F
:101080000895990F0008550FAA0BE0E8FEEF161619
:101090001706E807F907C0F012161306E407F5076C
:1010A00098F0621B730B840B950B39F40A2661F0E0
:1010B000232B242B252B21F408950A2609F4A14083
:1010C000A6958FEF811D811D089597F99F6780E890
:1010D00070E060E008959FEF80EC089500240A948A
:1010E0001616170618060906089500240A94121603
:1010F0001306140605060895092E0394000C11F436
:10110000882352F0BB0F40F4BF2B11F460FF04C0E2
:101110006F5F7F4F8F4F9F4F089557FD9058440F3B
:10112000551F59F05F3F71F04795880F97FB991F46
:1011300061F09F3F79F08795089512161306140603
:10114000551FF2CF4695F1DF08C016161706180690
:10115000991FF1CF86957105610508940895E8946B
:10116000BB2766277727CB0197F908950E9441088E
:1011700008F48FEF08950E94CE080C947C080E941A
:101180006E0838F00E94750820F0952311F00C9439
:1011900065080C946B0811240C94B0080E948D080B
:1011A00070F3959FC1F3950F50E0551F629FF001BA
:1011B000729FBB27F00DB11D639FAA27F00DB11DD3
:1011C000AA1F649F6627B00DA11D661F829F22275C
:1011D000B00DA11D621F739FB00DA11D621F839FE3
:1011E000A00D611D221F749F3327A00D611D231FB9
:1011F000849F600D211D822F762F6A2F11249F5707
:1012000050409AF0F1F088234AF0EE0FFF1FBB1F09
:10121000661F771F881F91505040A9F79E3F5105C8
:1012200080F00C9465080C94B0085F3FE4F3983E9E
:10123000D4F3869577956795B795F795E7959F5F72
:10124000C1F7FE2B880F911D9695879597F9089504
:101250000E944108880B990B0895A1E21A2EAA1B3F
:10126000BB1BFD010DC0AA1FBB1FEE1FFF1FA21756
:10127000B307E407F50720F0A21BB30BE40BF50B53
:10128000661F771F881F991F1A9469F760957095DC
:10129000809590959B01AC01BD01CF010895EE0FA3
:0E12A000FF1F0590F491E02D0994F894FFCF04
:1012AE00000000002C018C00B9007901EA00C80092
:1012BE00DC006E616E00696E66006F7666000D0A68
:0212CE0000001E
:00000001FF
